{
  "contractName": "FloodReliefFund",
  "abi": [
    {
      "inputs": [
        {
          "internalType": "address",
          "name": "_sylhetFund",
          "type": "address"
        },
        {
          "internalType": "address",
          "name": "_chittagongSouthFund",
          "type": "address"
        },
        {
          "internalType": "address",
          "name": "_chittagongNorthFund",
          "type": "address"
        }
      ],
      "stateMutability": "nonpayable",
      "type": "constructor"
    },
    {
      "inputs": [
        {
          "internalType": "string",
          "name": "_name",
          "type": "string"
        },
        {
          "internalType": "string",
          "name": "_mobileNumber",
          "type": "string"
        }
      ],
      "name": "RegisterDonor",
      "outputs": [],
      "stateMutability": "nonpayable",
      "type": "function"
    },
    {
      "inputs": [
        {
          "internalType": "string",
          "name": "_mobileNumber",
          "type": "string"
        },
        {
          "internalType": "string",
          "name": "_fundraiserZone",
          "type": "string"
        }
      ],
      "name": "Donate",
      "outputs": [],
      "stateMutability": "payable",
      "type": "function",
      "payable": true
    },
    {
      "inputs": [],
      "name": "GetTotalDonations",
      "outputs": [
        {
          "internalType": "uint256",
          "name": "",
          "type": "uint256"
        }
      ],
      "stateMutability": "view",
      "type": "function",
      "constant": true
    },
    {
      "inputs": [],
      "name": "GetFundraiserBalance",
      "outputs": [
        {
          "components": [
            {
              "internalType": "uint256",
              "name": "sylhetBalance",
              "type": "uint256"
            },
            {
              "internalType": "uint256",
              "name": "ChittagongNorthBalance",
              "type": "uint256"
            },
            {
              "internalType": "uint256",
              "name": "ChittagongSouthBalance",
              "type": "uint256"
            }
          ],
          "internalType": "struct FloodReliefFund.Balance",
          "name": "",
          "type": "tuple"
        }
      ],
      "stateMutability": "view",
      "type": "function",
      "constant": true
    },
    {
      "inputs": [],
      "name": "GetRealBalance",
      "outputs": [
        {
          "components": [
            {
              "internalType": "uint256",
              "name": "sylhetBalance",
              "type": "uint256"
            },
            {
              "internalType": "uint256",
              "name": "ChittagongNorthBalance",
              "type": "uint256"
            },
            {
              "internalType": "uint256",
              "name": "ChittagongSouthBalance",
              "type": "uint256"
            }
          ],
          "internalType": "struct FloodReliefFund.Balance",
          "name": "",
          "type": "tuple"
        }
      ],
      "stateMutability": "view",
      "type": "function",
      "constant": true
    },
    {
      "inputs": [
        {
          "internalType": "address",
          "name": "_donorAddress",
          "type": "address"
        }
      ],
      "name": "CheckDonorInfo",
      "outputs": [
        {
          "internalType": "string",
          "name": "name",
          "type": "string"
        },
        {
          "internalType": "string",
          "name": "mobileNumber",
          "type": "string"
        }
      ],
      "stateMutability": "view",
      "type": "function",
      "constant": true
    }
  ],
  "bytecode": "0x60806040523480156200001157600080fd5b5060405162001d4738038062001d4783398181016040528101906200003791906200016c565b826000806101000a81548173ffffffffffffffffffffffffffffffffffffffff021916908373ffffffffffffffffffffffffffffffffffffffff16021790555081600160006101000a81548173ffffffffffffffffffffffffffffffffffffffff021916908373ffffffffffffffffffffffffffffffffffffffff16021790555080600260006101000a81548173ffffffffffffffffffffffffffffffffffffffff021916908373ffffffffffffffffffffffffffffffffffffffff160217905550505050620001c8565b600080fd5b600073ffffffffffffffffffffffffffffffffffffffff82169050919050565b6000620001348262000107565b9050919050565b620001468162000127565b81146200015257600080fd5b50565b60008151905062000166816200013b565b92915050565b60008060006060848603121562000188576200018762000102565b5b6000620001988682870162000155565b9350506020620001ab8682870162000155565b9250506040620001be8682870162000155565b9150509250925092565b611b6f80620001d86000396000f3fe6080604052600436106100555760003560e01c80633779ee9e1461005a5780633d7c2267146100765780636d69283b146100a157806375120531146100df5780638698a11a146101085780638adbf8e614610133575b600080fd5b610074600480360381019061006f9190610ecb565b61015e565b005b34801561008257600080fd5b5061008b610568565b6040516100989190610f5c565b60405180910390f35b3480156100ad57600080fd5b506100c860048036038101906100c39190610fd5565b610585565b6040516100d6929190611081565b60405180910390f35b3480156100eb57600080fd5b5061010660048036038101906101019190610ecb565b6107b8565b005b34801561011457600080fd5b5061011d610ac3565b60405161012a9190611109565b60405180910390f35b34801561013f57600080fd5b50610148610bcd565b6040516101559190611109565b60405180910390f35b600360003373ffffffffffffffffffffffffffffffffffffffff1673ffffffffffffffffffffffffffffffffffffffff16815260200190815260200160002060020160009054906101000a900460ff166101ed576040517f08c379a00000000000000000000000000000000000000000000000000000000081526004016101e490611170565b60405180910390fd5b816040516020016101fe91906111cc565b60405160208183030381529060405280519060200120600360003373ffffffffffffffffffffffffffffffffffffffff1673ffffffffffffffffffffffffffffffffffffffff16815260200190815260200160002060010160405160200161026691906112db565b60405160208183030381529060405280519060200120146102bc576040517f08c379a00000000000000000000000000000000000000000000000000000000081526004016102b39061133e565b60405180910390fd5b600034116102ff576040517f08c379a00000000000000000000000000000000000000000000000000000000081526004016102f6906113d0565b60405180910390fd5b60006040516020016103109061143c565b604051602081830303815290604052805190602001208260405160200161033791906111cc565b604051602081830303815290604052805190602001200361037a5760008054906101000a900473ffffffffffffffffffffffffffffffffffffffff1690506104ad565b6040516020016103899061149d565b60405160208183030381529060405280519060200120826040516020016103b091906111cc565b60405160208183030381529060405280519060200120036103f557600160009054906101000a900473ffffffffffffffffffffffffffffffffffffffff1690506104ac565b604051602001610404906114fe565b604051602081830303815290604052805190602001208260405160200161042b91906111cc565b604051602081830303815290604052805190602001200361047057600260009054906101000a900473ffffffffffffffffffffffffffffffffffffffff1690506104ab565b6040517f08c379a00000000000000000000000000000000000000000000000000000000081526004016104a2906115ab565b60405180910390fd5b5b5b34600460008373ffffffffffffffffffffffffffffffffffffffff1673ffffffffffffffffffffffffffffffffffffffff16815260200190815260200160002060008282546104fc91906115fa565b925050819055508073ffffffffffffffffffffffffffffffffffffffff166108fc349081150290604051600060405180830381858888f19350505050158015610549573d6000803e3d6000fd5b50346005600082825461055c91906115fa565b92505081905550505050565b6000670de0b6b3a7640000600554610580919061165d565b905090565b606080600360008473ffffffffffffffffffffffffffffffffffffffff1673ffffffffffffffffffffffffffffffffffffffff16815260200190815260200160002060020160009054906101000a900460ff16610617576040517f08c379a000000000000000000000000000000000000000000000000000000000815260040161060e906116da565b60405180910390fd5b6000600360008573ffffffffffffffffffffffffffffffffffffffff1673ffffffffffffffffffffffffffffffffffffffff16815260200190815260200160002060405180606001604052908160008201805461067390611212565b80601f016020809104026020016040519081016040528092919081815260200182805461069f90611212565b80156106ec5780601f106106c1576101008083540402835291602001916106ec565b820191906000526020600020905b8154815290600101906020018083116106cf57829003601f168201915b5050505050815260200160018201805461070590611212565b80601f016020809104026020016040519081016040528092919081815260200182805461073190611212565b801561077e5780601f106107535761010080835404028352916020019161077e565b820191906000526020600020905b81548152906001019060200180831161076157829003601f168201915b505050505081526020016002820160009054906101000a900460ff1615151515815250509050806000015181602001519250925050915091565b60008054906101000a900473ffffffffffffffffffffffffffffffffffffffff1673ffffffffffffffffffffffffffffffffffffffff163373ffffffffffffffffffffffffffffffffffffffff16141580156108625750600160009054906101000a900473ffffffffffffffffffffffffffffffffffffffff1673ffffffffffffffffffffffffffffffffffffffff163373ffffffffffffffffffffffffffffffffffffffff1614155b80156108bc5750600260009054906101000a900473ffffffffffffffffffffffffffffffffffffffff1673ffffffffffffffffffffffffffffffffffffffff163373ffffffffffffffffffffffffffffffffffffffff1614155b6108fb576040517f08c379a00000000000000000000000000000000000000000000000000000000081526004016108f29061176c565b60405180910390fd5b600360003373ffffffffffffffffffffffffffffffffffffffff1673ffffffffffffffffffffffffffffffffffffffff16815260200190815260200160002060020160009054906101000a900460ff161561098b576040517f08c379a0000000000000000000000000000000000000000000000000000000008152600401610982906117d8565b60405180910390fd5b60008251116109cf576040517f08c379a00000000000000000000000000000000000000000000000000000000081526004016109c690611844565b60405180910390fd5b6000815111610a13576040517f08c379a0000000000000000000000000000000000000000000000000000000008152600401610a0a906118b0565b60405180910390fd5b604051806060016040528083815260200182815260200160011515815250600360003373ffffffffffffffffffffffffffffffffffffffff1673ffffffffffffffffffffffffffffffffffffffff1681526020019081526020016000206000820151816000019081610a859190611a67565b506020820151816001019081610a9b9190611a67565b5060408201518160020160006101000a81548160ff0219169083151502179055509050505050565b610acb610d50565b6040518060600160405280670de0b6b3a764000060008054906101000a900473ffffffffffffffffffffffffffffffffffffffff1673ffffffffffffffffffffffffffffffffffffffff1631610b21919061165d565b8152602001670de0b6b3a7640000600260009054906101000a900473ffffffffffffffffffffffffffffffffffffffff1673ffffffffffffffffffffffffffffffffffffffff1631610b73919061165d565b8152602001670de0b6b3a7640000600160009054906101000a900473ffffffffffffffffffffffffffffffffffffffff1673ffffffffffffffffffffffffffffffffffffffff1631610bc5919061165d565b815250905090565b610bd5610d50565b6040518060600160405280670de0b6b3a7640000600460008060009054906101000a900473ffffffffffffffffffffffffffffffffffffffff1673ffffffffffffffffffffffffffffffffffffffff1673ffffffffffffffffffffffffffffffffffffffff16815260200190815260200160002054610c54919061165d565b8152602001670de0b6b3a764000060046000600260009054906101000a900473ffffffffffffffffffffffffffffffffffffffff1673ffffffffffffffffffffffffffffffffffffffff1673ffffffffffffffffffffffffffffffffffffffff16815260200190815260200160002054610cce919061165d565b8152602001670de0b6b3a764000060046000600160009054906101000a900473ffffffffffffffffffffffffffffffffffffffff1673ffffffffffffffffffffffffffffffffffffffff1673ffffffffffffffffffffffffffffffffffffffff16815260200190815260200160002054610d48919061165d565b815250905090565b60405180606001604052806000815260200160008152602001600081525090565b6000604051905090565b600080fd5b600080fd5b600080fd5b600080fd5b6000601f19601f8301169050919050565b7f4e487b7100000000000000000000000000000000000000000000000000000000600052604160045260246000fd5b610dd882610d8f565b810181811067ffffffffffffffff82111715610df757610df6610da0565b5b80604052505050565b6000610e0a610d71565b9050610e168282610dcf565b919050565b600067ffffffffffffffff821115610e3657610e35610da0565b5b610e3f82610d8f565b9050602081019050919050565b82818337600083830152505050565b6000610e6e610e6984610e1b565b610e00565b905082815260208101848484011115610e8a57610e89610d8a565b5b610e95848285610e4c565b509392505050565b600082601f830112610eb257610eb1610d85565b5b8135610ec2848260208601610e5b565b91505092915050565b60008060408385031215610ee257610ee1610d7b565b5b600083013567ffffffffffffffff811115610f0057610eff610d80565b5b610f0c85828601610e9d565b925050602083013567ffffffffffffffff811115610f2d57610f2c610d80565b5b610f3985828601610e9d565b9150509250929050565b6000819050919050565b610f5681610f43565b82525050565b6000602082019050610f716000830184610f4d565b92915050565b600073ffffffffffffffffffffffffffffffffffffffff82169050919050565b6000610fa282610f77565b9050919050565b610fb281610f97565b8114610fbd57600080fd5b50565b600081359050610fcf81610fa9565b92915050565b600060208284031215610feb57610fea610d7b565b5b6000610ff984828501610fc0565b91505092915050565b600081519050919050565b600082825260208201905092915050565b60005b8381101561103c578082015181840152602081019050611021565b60008484015250505050565b600061105382611002565b61105d818561100d565b935061106d81856020860161101e565b61107681610d8f565b840191505092915050565b6000604082019050818103600083015261109b8185611048565b905081810360208301526110af8184611048565b90509392505050565b6110c181610f43565b82525050565b6060820160008201516110dd60008501826110b8565b5060208201516110f060208501826110b8565b50604082015161110360408501826110b8565b50505050565b600060608201905061111e60008301846110c7565b92915050565b7f556e617574686f72697a656420646f6e6f720000000000000000000000000000600082015250565b600061115a60128361100d565b915061116582611124565b602082019050919050565b600060208201905081810360008301526111898161114d565b9050919050565b600081905092915050565b60006111a682611002565b6111b08185611190565b93506111c081856020860161101e565b80840191505092915050565b60006111d8828461119b565b915081905092915050565b7f4e487b7100000000000000000000000000000000000000000000000000000000600052602260045260246000fd5b6000600282049050600182168061122a57607f821691505b60208210810361123d5761123c6111e3565b5b50919050565b60008190508160005260206000209050919050565b6000815461126581611212565b61126f8186611190565b9450600182166000811461128a576001811461129f576112d2565b60ff19831686528115158202860193506112d2565b6112a885611243565b60005b838110156112ca578154818901526001820191506020810190506112ab565b838801955050505b50505092915050565b60006112e78284611258565b915081905092915050565b7f4d6f62696c65206e756d626572206973206e6f74206d61746368696e67000000600082015250565b6000611328601d8361100d565b9150611333826112f2565b602082019050919050565b600060208201905081810360008301526113578161131b565b9050919050565b7f446f6e6174696f6e206d7573742062652067726561746572207468616e207a6560008201527f726f000000000000000000000000000000000000000000000000000000000000602082015250565b60006113ba60228361100d565b91506113c58261135e565b604082019050919050565b600060208201905081810360008301526113e9816113ad565b9050919050565b7f73796c6865740000000000000000000000000000000000000000000000000000600082015250565b6000611426600683611190565b9150611431826113f0565b600682019050919050565b600061144782611419565b9150819050919050565b7f636869747461676f6e672d736f75746800000000000000000000000000000000600082015250565b6000611487601083611190565b915061149282611451565b601082019050919050565b60006114a88261147a565b9150819050919050565b7f636869747461676f6e672d6e6f72746800000000000000000000000000000000600082015250565b60006114e8601083611190565b91506114f3826114b2565b601082019050919050565b6000611509826114db565b9150819050919050565b7f54727920746f20696e70757420616e79206f6620746869732076616c75653a2060008201527f2773796c686574272c2027636869747461676f6e672d736f757468272c20276360208201527f6869747461676f6e672d6e6f7274682700000000000000000000000000000000604082015250565b600061159560508361100d565b91506115a082611513565b606082019050919050565b600060208201905081810360008301526115c481611588565b9050919050565b7f4e487b7100000000000000000000000000000000000000000000000000000000600052601160045260246000fd5b600061160582610f43565b915061161083610f43565b9250828201905080821115611628576116276115cb565b5b92915050565b7f4e487b7100000000000000000000000000000000000000000000000000000000600052601260045260246000fd5b600061166882610f43565b915061167383610f43565b9250826116835761168261162e565b5b828204905092915050565b7f446f6e6f72206e6f7420666f756e640000000000000000000000000000000000600082015250565b60006116c4600f8361100d565b91506116cf8261168e565b602082019050919050565b600060208201905081810360008301526116f3816116b7565b9050919050565b7f46756e64726169736572206163636f756e74732063616e6e6f7420726567697360008201527f74657220617320646f6e6f727300000000000000000000000000000000000000602082015250565b6000611756602d8361100d565b9150611761826116fa565b604082019050919050565b6000602082019050818103600083015261178581611749565b9050919050565b7f446f6e6f7220616c726561647920726567697374657265640000000000000000600082015250565b60006117c260188361100d565b91506117cd8261178c565b602082019050919050565b600060208201905081810360008301526117f1816117b5565b9050919050565b7f50726f766964652061206e616d65000000000000000000000000000000000000600082015250565b600061182e600e8361100d565b9150611839826117f8565b602082019050919050565b6000602082019050818103600083015261185d81611821565b9050919050565b7f50726f766964652061206d6f62696c65206e756d626572000000000000000000600082015250565b600061189a60178361100d565b91506118a582611864565b602082019050919050565b600060208201905081810360008301526118c98161188d565b9050919050565b60006020601f8301049050919050565b600082821b905092915050565b60006008830261191d7fffffffffffffffffffffffffffffffffffffffffffffffffffffffffffffffff826118e0565b61192786836118e0565b95508019841693508086168417925050509392505050565b6000819050919050565b600061196461195f61195a84610f43565b61193f565b610f43565b9050919050565b6000819050919050565b61197e83611949565b61199261198a8261196b565b8484546118ed565b825550505050565b600090565b6119a761199a565b6119b2818484611975565b505050565b5b818110156119d6576119cb60008261199f565b6001810190506119b8565b5050565b601f821115611a1b576119ec81611243565b6119f5846118d0565b81016020851015611a04578190505b611a18611a10856118d0565b8301826119b7565b50505b505050565b600082821c905092915050565b6000611a3e60001984600802611a20565b1980831691505092915050565b6000611a578383611a2d565b9150826002028217905092915050565b611a7082611002565b67ffffffffffffffff811115611a8957611a88610da0565b5b611a938254611212565b611a9e8282856119da565b600060209050601f831160018114611ad15760008415611abf578287015190505b611ac98582611a4b565b865550611b31565b601f198416611adf86611243565b60005b82811015611b0757848901518255600182019150602085019450602081019050611ae2565b86831015611b245784890151611b20601f891682611a2d565b8355505b6001600288020188555050505b50505050505056fea26469706673582212204c014dd42a0a476a82ade390b413e10e045b9ffac9a98e8fff2572ddba304e5f64736f6c63430008120033",
  "immutableReferences": {},
  "source": "// SPDX-License-Identifier: GPL-3.0\r\n\r\npragma solidity >=0.8.2 <0.9.0;\r\n\r\n/**\r\n * @title Storage\r\n * @dev Store & retrieve value in a variable\r\n * @custom:dev-run-script ./scripts/deploy_with_ethers.ts\r\n */\r\n\r\n/**\r\n * Lab Assignment 01 (DApp)\r\n * Group Number 07\r\n * Abir Ahammed Bhuiyan (20101197)\r\n * Mashuk Jannat Mahima (21201007)\r\n * Md. Mustafizur Rahman (22301385)\r\n */\r\n\r\n\r\ncontract FloodReliefFund {\r\n    struct Donor {\r\n        string name;\r\n        string mobileNumber;\r\n        bool isRegistered;\r\n    }\r\n\r\n    struct Balance {\r\n        uint256 sylhetBalance;\r\n        uint256 ChittagongNorthBalance;\r\n        uint256 ChittagongSouthBalance;\r\n    }\r\n\r\n    address private sylhetFund;\r\n    address private chittagongSouthFund;\r\n    address private chittagongNorthFund;\r\n\r\n    mapping(address => Donor) private donors;\r\n    mapping(address => uint256) private fundraiserBalance;\r\n    uint256 private totalDonations;\r\n\r\n    constructor(address _sylhetFund, address _chittagongSouthFund, address _chittagongNorthFund) {\r\n        sylhetFund = _sylhetFund;\r\n        chittagongSouthFund = _chittagongSouthFund;\r\n        chittagongNorthFund = _chittagongNorthFund;\r\n    }\r\n\r\n    modifier NotFundraiserAccount() {\r\n        require(msg.sender != sylhetFund && msg.sender != chittagongSouthFund && msg.sender != chittagongNorthFund, \"Fundraiser accounts cannot register as donors\");\r\n        _;\r\n    }\r\n\r\n    function RegisterDonor(string memory _name, string memory _mobileNumber) public NotFundraiserAccount {\r\n        require(!donors[msg.sender].isRegistered, \"Donor already registered\");\r\n        require(bytes(_name).length > 0, \"Provide a name\");\r\n        require(bytes(_mobileNumber).length > 0, \"Provide a mobile number\");\r\n        donors[msg.sender] = Donor(_name, _mobileNumber, true);\r\n    }\r\n\r\n    function Donate(string memory _mobileNumber, string memory _fundraiserZone) public payable {\r\n        require(donors[msg.sender].isRegistered, \"Unauthorized donor\");\r\n        require(keccak256(abi.encodePacked(donors[msg.sender].mobileNumber)) == keccak256(abi.encodePacked(_mobileNumber)), \"Mobile number is not matching\");\r\n        require(msg.value > 0, \"Donation must be greater than zero\");\r\n\r\n        address fundraiser;\r\n\r\n        if (keccak256(abi.encodePacked(_fundraiserZone)) == keccak256(abi.encodePacked(\"sylhet\"))) fundraiser = sylhetFund;\r\n        else if (keccak256(abi.encodePacked(_fundraiserZone)) == keccak256(abi.encodePacked(\"chittagong-south\"))) fundraiser = chittagongSouthFund;\r\n        else if (keccak256(abi.encodePacked(_fundraiserZone)) == keccak256(abi.encodePacked(\"chittagong-north\"))) fundraiser = chittagongNorthFund;\r\n        else revert(\"Try to input any of this value: 'sylhet', 'chittagong-south', 'chittagong-north'\");\r\n\r\n        fundraiserBalance[fundraiser] += msg.value;\r\n        payable(fundraiser).transfer(msg.value);\r\n        totalDonations += msg.value;\r\n    }\r\n\r\n    function GetTotalDonations() public view returns (uint256) {\r\n        return totalDonations / 1 ether;\r\n    }\r\n\r\n    function GetFundraiserBalance() public view returns (Balance memory) {\r\n        return Balance(\r\n            fundraiserBalance[sylhetFund] / 1 ether, \r\n            fundraiserBalance[chittagongNorthFund] / 1 ether,\r\n            fundraiserBalance[chittagongSouthFund] / 1 ether \r\n        );\r\n    }\r\n\r\n    function GetRealBalance() public view returns (Balance memory) {\r\n        return Balance(\r\n            sylhetFund.balance / 1 ether,\r\n            chittagongNorthFund.balance / 1 ether,\r\n            chittagongSouthFund.balance / 1 ether\r\n        );\r\n    }\r\n\r\n    function CheckDonorInfo(address _donorAddress) public view returns (string memory name, string memory mobileNumber) {\r\n        require(donors[_donorAddress].isRegistered, \"Donor not found\");\r\n        Donor memory donor = donors[_donorAddress];\r\n        return (donor.name, donor.mobileNumber);\r\n    }\r\n}",
  "sourcePath": "/home/abir/CSE446/FloodReliefFund/truffle/contracts/FloodReliefFund.sol",
  "compiler": {
    "name": "solc",
    "version": "0.8.18+commit.87f61d96.Emscripten.clang"
  },
  "schemaVersion": "3.4.16",
  "updatedAt": "2024-09-12T17:05:00.691Z",
  "networkType": "ethereum",
  "devdoc": {
    "kind": "dev",
    "methods": {},
    "version": 1
  },
  "userdoc": {
    "kind": "user",
    "methods": {},
    "notice": "Lab Assignment 01 (DApp) Group Number 07 Abir Ahammed Bhuiyan (20101197) Mashuk Jannat Mahima (21201007) Md. Mustafizur Rahman (22301385)",
    "version": 1
  }
}